:1000000045C0000053C0000051C000004FC00000B8
:100010004DC000004BC0000049C0000047C00000B8
:1000200045C0000043C0000041C000003FC00000C8
:100030003DC000003BC0000039C0000037C00000D8
:1000400035C0000033C00000AEC00000C0C00000DA
:100050002DC000002BC0000029C0000027C00000F8
:1000600025C0000023C0000021C000001FC0000008
:100070001DC000001BC0000019C0000017C0000018
:1000800015C0000013C0000011C0000011241FBEE5
:10009000CFEFD0E4DEBFCDBF21E0A0E0B1E001C0F2
:1000A0001D92A631B207E1F7C5D0FAC0A9CF8AB137
:1000B0008FEF8AB9E0E8F0E08081806A8083E1E830
:1000C000F0E0808182618083E2E8F0E080818A60F4
:1000D000808380E197E290938700809386008EEE84
:1000E00092E0909389008093880090938B00809396
:1000F0008A0080E48093B3002FEF81E19AE72150DA
:1001000080409040E1F700C00000109295001092EE
:10011000940008959C012C5E3F4F29323105D8F49C
:1001200044EF51E0849F9001859F300D949F300DE6
:100130001124C90166E170E08CD02CED35E0261B5E
:10014000370BC90199230CF40196959587959093E7
:100150008B0080938A00109295001092940008956D
:1001600080E484B980EC8CBD08958F319105B0F4A2
:100170009C01220F331F820F931F880F991F880F36
:10018000991F84529A4F9C01992314F42F5F3F4F7B
:10019000359527953093890020938800109295001B
:1001A0001092940008951F920F920FB60F9211248F
:1001B0008F939F938EEE92E09093890080938800B6
:1001C0009F918F910F900FBE0F901F9018951F92C7
:1001D0000F920FB60F9211240BB60F922F933F93ED
:1001E0004F935F936F937F938F939F93AF93BF933F
:1001F000EF93FF930EB407FE06C08EB590E08058D3
:100200009109B3DF04C08EB590E00F9783DFFF91B3
:10021000EF91BF91AF919F918F917F916F915F917E
:100220004F913F912F910F900BBE0F900FBE0F90EB
:100230001F9018953CDF81B18FEF81B910920101B9
:1002400010920001109205011092040189DF789448
:10025000FFCF97FB072E16F4009406D077FD08D049
:100260000BD007FC05D03EF4909581959F4F0895E3
:10027000709561957F4F0895AA1BBB1B51E107C084
:10028000AA1FBB1FA617B70710F0A61BB70B881F26
:10029000991F5A95A9F780959095BC01CD010895B5
:0402A000F894FFCF00
:00000001FF
